{
  "contractName": "Proto",
  "abi": [
    {
      "constant": true,
      "inputs": [
        {
          "name": "x",
          "type": "uint256"
        },
        {
          "name": "y",
          "type": "uint256"
        }
      ],
      "name": "getLatestVoter",
      "outputs": [
        {
          "name": "",
          "type": "address"
        }
      ],
      "payable": false,
      "stateMutability": "view",
      "type": "function"
    },
    {
      "constant": true,
      "inputs": [],
      "name": "getBoard",
      "outputs": [
        {
          "name": "",
          "type": "bytes1[2]"
        }
      ],
      "payable": false,
      "stateMutability": "view",
      "type": "function"
    },
    {
      "constant": false,
      "inputs": [
        {
          "name": "x",
          "type": "uint256"
        },
        {
          "name": "y",
          "type": "uint256"
        },
        {
          "name": "color",
          "type": "bytes1"
        }
      ],
      "name": "changeColor",
      "outputs": [],
      "payable": false,
      "stateMutability": "nonpayable",
      "type": "function"
    },
    {
      "constant": true,
      "inputs": [
        {
          "name": "x",
          "type": "uint256"
        },
        {
          "name": "y",
          "type": "uint256"
        }
      ],
      "name": "getColor",
      "outputs": [
        {
          "name": "",
          "type": "bytes1"
        }
      ],
      "payable": false,
      "stateMutability": "view",
      "type": "function"
    },
    {
      "inputs": [],
      "payable": false,
      "stateMutability": "nonpayable",
      "type": "constructor"
    }
  ],
  "bytecode": "0x60606040526004600160006101000a81548160ff021916908360ff160217905550341561002b57600080fd5b60005b60028110156100b75760007f01000000000000000000000000000000000000000000000000000000000000000260008260028110151561006a57fe5b602091828204019190066101000a81548160ff02191690837f010000000000000000000000000000000000000000000000000000000000000090040217905550808060010191505061002e565b506107c6806100c76000396000f300606060405260043610610062576000357c0100000000000000000000000000000000000000000000000000000000900463ffffffff168063305ca54a146100675780633264a34b146100d3578063dfda257d14610124578063eded5d9e1461017b575b600080fd5b341561007257600080fd5b61009160048080359060200190919080359060200190919050506101ff565b604051808273ffffffffffffffffffffffffffffffffffffffff1673ffffffffffffffffffffffffffffffffffffffff16815260200191505060405180910390f35b34156100de57600080fd5b6100e6610285565b6040518082600260200280838360005b838110156101115780820151818401526020810190506100f6565b5050505090500191505060405180910390f35b341561012f57600080fd5b61017960048080359060200190919080359060200190919080357effffffffffffffffffffffffffffffffffffffffffffffffffffffffffffff1916906020019091905050610334565b005b341561018657600080fd5b6101a560048080359060200190919080359060200190919050506104e1565b60405180827effffffffffffffffffffffffffffffffffffffffffffffffffffffffffffff19167effffffffffffffffffffffffffffffffffffffffffffffffffffffffffffff1916815260200191505060405180910390f35b600080838381600011158015610219575060016002038211155b8015610226575080600011155b8015610236575060016002038111155b151561024157600080fd5b84860192506002600084815260200190815260200160002060009054906101000a900473ffffffffffffffffffffffffffffffffffffffff16935050505092915050565b61028d610751565b600060028060200260405190810160405280929190826002801561032a576020028201916000905b82829054906101000a90047f0100000000000000000000000000000000000000000000000000000000000000027effffffffffffffffffffffffffffffffffffffffffffffffffffffffffffff1916815260200190600101906020826000010492830192600103820291508084116102b55790505b5050505050905090565b6000806000806000806000898981600011158015610356575060016002038211155b8015610363575080600011155b8015610373575060016002038111155b151561037e57600080fd5b8a8c60020201985060028981151561039257fe5b0497506002898115156103a157fe5b06965033600260008b815260200190815260200160002060006101000a81548173ffffffffffffffffffffffffffffffffffffffff021916908373ffffffffffffffffffffffffffffffffffffffff16021790555060008860028110151561040557fe5b602091828204019190069054906101000a90047f01000000000000000000000000000000000000000000000000000000000000000294506000871415610466576104508560046105ce565b93508361045e8b600461063d565b179550610483565b61047185600461069d565b92508961047f84600461063d565b1795505b8560008960028110151561049357fe5b602091828204019190066101000a81548160ff02191690837f010000000000000000000000000000000000000000000000000000000000000090040217905550505050505050505050505050565b600080600080600080878781600011158015610501575060016002038211155b801561050e575080600011155b801561051e575060016002038111155b151561052957600080fd5b888a60020201965060028781151561053d57fe5b04955060028781151561054c57fe5b06945060008660028110151561055e57fe5b602091828204019190069054906101000a90047f010000000000000000000000000000000000000000000000000000000000000002935060008514156105b0576105a984600461070c565b92506105be565b6105bb8460046105ce565b92505b8297505050505050505092915050565b60008060008360020a60ff16857f0100000000000000000000000000000000000000000000000000000000000000900460ff1681151561060a57fe5b069150817f0100000000000000000000000000000000000000000000000000000000000000029050809250505092915050565b6000806000847f0100000000000000000000000000000000000000000000000000000000000000900491508360020a82029050807f0100000000000000000000000000000000000000000000000000000000000000029250505092915050565b6000806000847f0100000000000000000000000000000000000000000000000000000000000000900491508360020a60ff168260ff168115156106dc57fe5b049050807f0100000000000000000000000000000000000000000000000000000000000000029250505092915050565b600080600060ff7f0100000000000000000000000000000000000000000000000000000000000000029150610744828560080361063d565b9050849250505092915050565b60408051908101604052806002905b60007effffffffffffffffffffffffffffffffffffffffffffffffffffffffffffff191681526020019060019003908161076057905050905600a165627a7a723058208cf3b19b6edb245cf311d155d42c17ff9c048683cd6cc0bdd14914f64c7e90210029",
  "source": "pragma solidity ^0.4.17;\n\n// @title Prototype contract for the place board and necessary functions\n// @author Brandon Nieves\ncontract Proto {\n\n\t//TODO\n\t// change double require for all functions to a modifier\n\t// make getOffset function\n\t// write test cases for important functions\n\n\t// This is a 3x3 board\n\tbytes1[2] board;\n\t// Need better variable name\n\tuint8 colorBit = 4;\n\n\tmapping(uint => address) blockIdToAddress;\n\n\t// constructor for this contract\n\tfunction Proto() public {\n\n\t\t// initialize the board as empty\n\t\tfor(uint i; i < board.length; i++){\n\t\t\tboard[i] = 0x00;\n\t\t}\n\n\t}\n\n\t// @param x is the x coordinate for the block to change color\n\t// @param y is the y coordinate for the block to change color\n\t// @param color is a 4 bit color that occupies half of the byte passed\n\t// @notice changeColor modifies board to the color designated\n\tfunction changeColor(uint x, uint y, bytes1 color) public validCoordinates(x, y) {\n\n\t\tuint offset = (board.length * x + y);\n\t\tuint byteIndex = offset / 2;\n\t\tuint bytePos = offset % 2;\n\n\t\tbytes1 result;\n\n\t\tblockIdToAddress[offset] = msg.sender;\n\n\t\t// Get the byte you're looking for, in storage\n\t\tbytes1 square = board[byteIndex];\n\n\t\t// if the color to change is at the back of the byte \n\t\tif(bytePos == 0){\n\n\t\t\t// the front 4 bits of block are changing\n\t\t\t// left shift color 4 bits then or it with the last 4 bits of square\n\t\t\tbytes1 lastBits = lastNBits(square, 4);\n\t\t\tresult = shiftLeft(color, 4) | lastBits;\n\n\t\t} else {\n\n\t\t\t// get only the first 4 bits of byte you're looking for\n\t\t\t// shift the 4 bits of square to the left then or it with color\n\t\t\t\n\t\t\tbytes1 firstBits = shiftRight(square, 4);\n\t\t\tresult = shiftLeft(firstBits, 4) | color;\n\n\t\t}\n\n\t\tboard[byteIndex] = result;\n\n\t}\n\n\tfunction getLatestVoter(uint x, uint y) public view validCoordinates(x, y) returns (address) {\n\n\t\tuint index = x + y;\n\n\t\treturn blockIdToAddress[index];\n\t}\n\n\t\n\tfunction getColor(uint x, uint y) public view validCoordinates(x, y) returns (bytes1) {\n\t\t// coordinates must be valid in order to continue\n\t\tuint offset = (board.length * x + y);\n\t\tuint byteIndex = offset / 2;\n\t\tuint bytePos = offset % 2;\n\n\t\tbytes1 square = board[byteIndex];\n\n\t\tbytes1 result;\n\n\t\t// get the front 4 bits\n\t\tif(bytePos == 0){\n\n\t\t\tresult = firstNBits(square, 4);\n\n\t\t} else {\n\t\t\t// get last 4 bits\n\n\t\t\tresult = lastNBits(square, 4);\n\n\t\t}\n\n\t\treturn result;\n\n\t}\n\n\tfunction shiftLeft(bytes1 bite, uint8 n) private pure returns (bytes1) {\n\n\t\t uint8 aInt = uint8(bite);\n\t\t uint8 shifted = aInt * 2 ** n;\n\t\t return bytes1(shifted);\n\t}\n\n\tfunction shiftRight(bytes1 bite, uint8 n) private pure returns (bytes1) {\n\t\tuint8 bInt = uint8(bite);\n\t\tuint8 shifted = bInt / 2 ** n;\n\t\treturn bytes1(shifted);\n\t}\n\t\n\tfunction firstNBits(bytes1 bite, uint8 n) private pure returns (bytes1) {\n\n\t\tbytes1 Ones = 0xff;\n\t\tbytes1 mask = shiftLeft(Ones, 8 - n);\n\t\tbite & mask;\n\n\t\treturn bite;\n\t}\n\n\tfunction lastNBits(bytes1 bite, uint8 n) private pure returns (bytes1) {\n\n\t\tuint8 lastBits = uint8(bite) % 2 ** n;\n\t\tbytes1 res = bytes1(lastBits);\n\t\treturn res;\n\t}\n\n\tfunction getBoard() public view returns (bytes1[2]) {\n\t\treturn board;\n\t}\n\n\tmodifier validCoordinates(uint x, uint y) {\n\t\trequire((0 <= x) && (x <= (board.length - 1) ) && (0 <= y) && (y <= (board.length - 1)));\n\t\t_;\n\t}\n}",
  "sourcePath": "/Users/brandonnieves/Documents/1718Spring/CapstoneResearch/solidityCode/contracts/Proto.sol",
  "compiler": {
    "name": "solc",
    "version": "0.4.18+commit.9cf6e910.Emscripten.clang"
  },
  "schemaVersion": "1.0.1",
  "updatedAt": "2018-04-12T20:46:19.212Z"
}